:1000000033C0000041C000003FC000003DC0000000
:100010003BC0000039C0000037C0000035C0000000
:1000200033C0000031C000002FC000002DC0000010
:100030002BC0000029C0000027C0000025C0000020
:1000400023C0000021C000001FC000001DC0000030
:100050001BC0000019C0000017C0000015C0000040
:1000600013C0000011C0000011241FBECFEFD8E064
:10007000DEBFCDBF23E0A0E0B1E001C01D92A03003
:10008000B207E1F77AD038C4BBCF6115710569F0CA
:10009000FC01680F791F81919091C00095FFFCCF02
:1000A0008093C600E617F707B1F70895EF92FF9225
:1000B0001F93CF93DF93FC018081813009F047C00B
:1000C0002A98C581D68183819481278130852C0F20
:1000D0003D1F2817390708F442C0232BA9F140E03F
:1000E00050E01FEF48175907C0F5A181B281A40F56
:1000F000B51F8C918EBD0DB407FEFDCFA781B085D5
:10010000209799F04A175B0780F02EB5CA018A1B29
:100110009B0BDB011196ED90FC901297D701A80F75
:10012000B91F2C932197A781B0854F5F5F4F8381C3
:100130009481258136812A0F3B1F2817390708F43F
:100140009C014217530770F2818580FF2A9ADF9144
:10015000CF911F91FF90EF9008951EBDCCCF9C01D1
:10016000BCCF229A2A9A239A259A8DB58E7F8DBD6F
:1001700081E08DBD80E58CBD0895CF93DF93CDB731
:10018000DEB766970FB6F894DEBF0FBECDBF1092F4
:10019000C5001092C40086E08093C2008091C10027
:1001A00088618093C100DDDFE12CF12C05E410E0D3
:1001B00026E530E040E052E060E071E0CE010196DB
:1001C00040D000E010E08091C00087FD0DC00F5FBF
:1001D0001F4F00368AEE1807B1F7CE01019609D1FC
:1001E0008091C00087FFF3CF6091C600CE010196D9
:1001F0003DD000E010E0E7CFCF92DF92EF92FF9288
:100200000F93CF93DF937C016B01EA01FB014081E7
:100210005181FC016081718109812881CE0102D167
:10022000F60140815181F7016081718120E030E069
:10023000CE01DF91CF910F91FF90EF90DF90CF90A3
:100240000EC1EF92FF920F931F93FC0171836083A5
:1002500053834283318B208B138B028BF58AE48A84
:1002600004961F910F91FF90EF9072C1CF92DF9291
:10027000EF92FF920F931F93CF93DF93CDB7DEB72B
:1002800065970FB6F894DEBF0FBECDBF7C01AE01FF
:10029000455F5F4F04966AD1882319F18F7781F10A
:1002A000AE01455F5F4FB7016E5F7F4FC701A4DFAF
:1002B000D70152960D911C9153975496CD90DC9096
:1002C000559712964D915C9113976D917C91CE014B
:1002D0000B9612D1A601BC01F70180819181F80132
:1002E000099565960FB6F894DEBF0FBECDBFDF91BE
:1002F000CF911F910F91FF90EF90DF90CF900895D5
:100300004F8558896D857E852B85CE010196DAD182
:100310004F8558896D857E85CE0101960BD24F851C
:1003200058896D857E85CE010196E1D11B85D70167
:1003300012964D915C9113976D917C910C8520E004
:10034000CE010B966FD04F8558896D857E85212F04
:10035000CE01419633D28981882309F441C081308E
:10036000A1F1AE01455F5F4FB7016E5F7F4FC701DF
:1003700043DF8B8581119CCFCE0141962DD2D701D1
:1003800012964D915C9113976D917C919C01CE01D9
:100390000B9665D04F8558896D857E85CE01419637
:1003A0002FD2F701448955890088F189E02DBE01DB
:1003B0006F5E7F4FCE01019609954F8558896D85F7
:1003C0007E85CE0141962AD273CF8E819F812C8962
:1003D0003D892817390708F4C4CF9D8B8C8BC9CF72
:1003E00081E08A8B1B8AF701828193819D8B8C8BA4
:1003F000C0CF04965DC10F931F93CF93DF93EC01A1
:100400002397CE014FD2823031F0CE01DF91CF91D0
:100410001F910F9108952197CE01DF91CF911F91E8
:100420000F9108950F93CF93DF93EC0128830983F5
:100430004430510550F480E090E09D838C831B8212
:100440001A82DF91CF910F910895CA01D4DF9D8365
:100450008C831B821A82DF91CF910F910895EF92C6
:10046000FF920F931F93CF93DF93FC0184819581BB
:100470008217930719F121153105A1F08901CA01ED
:100480007B01EF0144305105A8F580E090E0801732
:100490009107E0F480E0DF91CF911F910F91FF90E1
:1004A000EF900895158214821382128281E0DF9109
:1004B000CF911F910F91FF90EF90089581E0DF9110
:1004C000CF911F910F91FF90EF9008951D830C83A2
:1004D000C801E8D1682F70E06E5F7F4F6E0D7F1D01
:1004E0007B836A8381E0DF91CF911F910F91FF9011
:1004F000EF90089580DFCBCFEF92FF920F931F9381
:10050000CF93DF93EC018B018881806DFB018083A9
:10051000898181836E5F7F4F8C819D81E0D10C80CA
:10052000DD81C02D2296C80FD11D7801EC0EFD1E75
:1005300020E04BEABE01C8019DD1F7018083CE01C6
:100540000196DF91CF911F910F91FF90EF90089549
:10055000FC01718760875387428710821382118262
:100560001282178216821582148208951F93CF93E8
:10057000DF93EC01162F8881823009F47BC028F1CB
:100580008530D1F1863009F47FC0833009F45CC036
:10059000843059F52C813D818A859B85821793078C
:1005A00068F482E818821B8219821A821F821E82D6
:1005B0001D821C82DF91CF911F91089585E0888371
:1005C00080E0DF91CF911F910895882309F447C0FF
:1005D0008130F1F6698382E088834B816BEA812F59
:1005E0003CD18B8388818430A9F2873059F180E037
:1005F000DF91CF911F910895288539858E819F8144
:10060000AC014F5F5F4F5F834E83F901E80FF91F25
:1006100060832E813F818C819D8128173907E9F6FF
:1006200086E08883DACF8A81FA0180838981818399
:100630008C819D8195838483892BA9F188859985F7
:100640009383828380E8AECFE885F98561838885CE
:10065000998534D19D838C8384E08883BECF862F97
:10066000807F803D21F6862F87708A8381E0888392
:1006700040E0B4CF862F1DD1813059F0E885F9854F
:10068000108383E08883A9CF8B81681761F283E8A8
:1006900089CF812F90E09D838C83892B09F4C0CF73
:1006A00084E088839ACFFA011382128280E87ACF9D
:1006B000FC01108213821182128217821682158227
:1006C00014820895FC012083213059F448305105EB
:1006D00048F41482138212821182168215821086C7
:1006E000178208954750510954834383F4CF0F93E1
:1006F0001F93CF93DF93FC018081813031F483819C
:100700009481009739F412821182DF91CF911F9169
:100710000F9108958B01EF01C5D0682F70E06F5FD6
:100720007F4F600F711F7A836983DF91CF911F9193
:100730000F910895EF92FF920F931F93CF93DF9342
:10074000FC012081213089F57B018C01FB01219185
:10075000CF01F801218712821182B0D0F801948371
:100760008383A0D0F801C381D4812196C80FD11D05
:10077000C7018C0F9D1FA2D0F8019087878392D06C
:10078000C80FD11DC7018C0F9D1F98D0F80196830B
:10079000858388D09E01280F311DC901DF91CF913B
:1007A0001F910F91FF90EF90089580E090E0DF910E
:1007B000CF911F910F91FF90EF900895FC0120833E
:1007C000213049F44230510520F041505109548301
:1007D0004383128211820895FC012081222349F073
:1007E000213021F4FC0183819481089580E090E020
:1007F0000895FC018381948155D090E0019608957D
:10080000FC018081813031F483819481892B19F43A
:10081000128211820895728361830895DC012C9104
:10082000222349F0213021F4FC0183819481089531
:1008300080E090E00895FC018181B0E18B9FC001D0
:10084000112492819F70892BDB018D93BD018381DF
:10085000948145D090E001960895842798E004C0E3
:1008600086958627915029F080FDFACF8695915084
:10087000D9F708956115710599F0FC01680F791F8A
:100880008191282798E004C026952427915029F0CB
:1008900020FDFACF26959150D9F7E617F70781F793
:1008A000822F08958038910510F082E0089581E04C
:1008B0000895881F8827881F8F5F0895FC01208175
:1008C00027FD03C0822F90E008952F7730E0322F6C
:1008D0002227FC018181A901482BCA010895803893
:1008E000910530F09068FB019083818382E0089548
:0C08F000FB01808381E00895F894FFCFA5
:00000001FF
